{
  "_format": "hh-sol-artifact-1",
  "contractName": "StrategyVault",
  "sourceName": "contracts/StrategyVault.sol",
  "abi": [
    {
      "inputs": [],
      "stateMutability": "nonpayable",
      "type": "constructor"
    },
    {
      "inputs": [],
      "name": "checkRebalance",
      "outputs": [
        {
          "internalType": "bool",
          "name": "",
          "type": "bool"
        }
      ],
      "stateMutability": "view",
      "type": "function"
    },
    {
      "inputs": [],
      "name": "rebalance",
      "outputs": [],
      "stateMutability": "nonpayable",
      "type": "function"
    }
  ],
  "bytecode": "0x608060405234801561001057600080fd5b5060c88061001f6000396000f3fe6080604052348015600f57600080fd5b506004361060325760003560e01c80637d7c2a1c146037578063a56c077f14603f575b600080fd5b603d6059565b005b6045605b565b604051605091906079565b60405180910390f35b565b600090565b60008115159050919050565b6073816060565b82525050565b6000602082019050608c6000830184606c565b9291505056fea2646970667358221220631960558c09526d3cd2454f757b1b30aa7c19fd736949ae37b9ee321926783664736f6c63430008110033",
  "linkReferences": {},
  "deployedLinkReferences": {}
}