{
  "_format": "hh-sol-artifact-1",
  "contractName": "StrategyVault",
  "sourceName": "contracts/StrategyVault.sol",
  "abi": [
    {
      "inputs": [
        {
          "internalType": "string",
          "name": "_asset_pair",
          "type": "string"
        },
        {
          "internalType": "string",
          "name": "_indicator",
          "type": "string"
        },
        {
          "internalType": "string",
          "name": "_time_frame",
          "type": "string"
        },
        {
          "internalType": "uint256",
          "name": "_period",
          "type": "uint256"
        },
        {
          "internalType": "address",
          "name": "_smaIndicatorOracleAddres",
          "type": "address"
        },
        {
          "internalType": "uint256",
          "name": "_upper_limit",
          "type": "uint256"
        },
        {
          "internalType": "uint256",
          "name": "_lower_limit",
          "type": "uint256"
        }
      ],
      "stateMutability": "nonpayable",
      "type": "constructor"
    },
    {
      "inputs": [],
      "name": "checkRebalance",
      "outputs": [
        {
          "internalType": "bool",
          "name": "",
          "type": "bool"
        }
      ],
      "stateMutability": "view",
      "type": "function"
    },
    {
      "inputs": [],
      "name": "goLong",
      "outputs": [],
      "stateMutability": "nonpayable",
      "type": "function"
    },
    {
      "inputs": [],
      "name": "goShort",
      "outputs": [],
      "stateMutability": "nonpayable",
      "type": "function"
    },
    {
      "inputs": [],
      "name": "rebalance",
      "outputs": [],
      "stateMutability": "nonpayable",
      "type": "function"
    },
    {
      "inputs": [],
      "name": "status",
      "outputs": [
        {
          "internalType": "string",
          "name": "",
          "type": "string"
        }
      ],
      "stateMutability": "view",
      "type": "function"
    },
    {
      "inputs": [],
      "name": "updateIndicator",
      "outputs": [],
      "stateMutability": "nonpayable",
      "type": "function"
    }
  ],
  "bytecode": "0x60806040526040518060400160405280600881526020017f457468657265756d000000000000000000000000000000000000000000000000815250600590805190602001906200005192919062000188565b506040518060400160405280600481526020017f6c6f6e6700000000000000000000000000000000000000000000000000000000815250600790805190602001906200009f92919062000188565b50348015620000ad57600080fd5b50604051620011e7380380620011e78339818101604052810190620000d3919062000475565b8660009080519060200190620000eb92919062000188565b5085600190805190602001906200010492919062000188565b5084600290805190602001906200011d92919062000188565b508360038190555082600460006101000a81548173ffffffffffffffffffffffffffffffffffffffff021916908373ffffffffffffffffffffffffffffffffffffffff16021790555042600681905550816008819055508060098190555050505050505050620005ea565b8280546200019690620005b4565b90600052602060002090601f016020900481019282620001ba576000855562000206565b82601f10620001d557805160ff191683800117855562000206565b8280016001018555821562000206579182015b8281111562000205578251825591602001919060010190620001e8565b5b50905062000215919062000219565b5090565b5b80821115620002345760008160009055506001016200021a565b5090565b6000604051905090565b600080fd5b600080fd5b600080fd5b600080fd5b6000601f19601f8301169050919050565b7f4e487b7100000000000000000000000000000000000000000000000000000000600052604160045260246000fd5b620002a18262000256565b810181811067ffffffffffffffff82111715620002c357620002c262000267565b5b80604052505050565b6000620002d862000238565b9050620002e6828262000296565b919050565b600067ffffffffffffffff82111562000309576200030862000267565b5b620003148262000256565b9050602081019050919050565b60005b838110156200034157808201518184015260208101905062000324565b8381111562000351576000848401525b50505050565b60006200036e6200036884620002eb565b620002cc565b9050828152602081018484840111156200038d576200038c62000251565b5b6200039a84828562000321565b509392505050565b600082601f830112620003ba57620003b96200024c565b5b8151620003cc84826020860162000357565b91505092915050565b6000819050919050565b620003ea81620003d5565b8114620003f657600080fd5b50565b6000815190506200040a81620003df565b92915050565b600073ffffffffffffffffffffffffffffffffffffffff82169050919050565b60006200043d8262000410565b9050919050565b6200044f8162000430565b81146200045b57600080fd5b50565b6000815190506200046f8162000444565b92915050565b600080600080600080600060e0888a03121562000497576200049662000242565b5b600088015167ffffffffffffffff811115620004b857620004b762000247565b5b620004c68a828b01620003a2565b975050602088015167ffffffffffffffff811115620004ea57620004e962000247565b5b620004f88a828b01620003a2565b965050604088015167ffffffffffffffff8111156200051c576200051b62000247565b5b6200052a8a828b01620003a2565b95505060606200053d8a828b01620003f9565b9450506080620005508a828b016200045e565b93505060a0620005638a828b01620003f9565b92505060c0620005768a828b01620003f9565b91505092959891949750929550565b7f4e487b7100000000000000000000000000000000000000000000000000000000600052602260045260246000fd5b60006002820490506001821680620005cd57607f821691505b60208210811415620005e457620005e362000585565b5b50919050565b610bed80620005fa6000396000f3fe608060405234801561001057600080fd5b50600436106100625760003560e01c806311bbb15514610067578063200d2ed2146100715780637d7c2a1c1461008f57806381920d4d146100995780639ff394a8146100a3578063a56c077f146100ad575b600080fd5b61006f6100cb565b005b610079610119565b604051610086919061070d565b60405180910390f35b6100976101a7565b005b6100a1610274565b005b6100ab610366565b005b6100b56103b4565b6040516100c2919061074a565b60405180910390f35b6040518060400160405280600581526020017f73686f7274000000000000000000000000000000000000000000000000000000815250600790805190602001906101169291906105d1565b50565b6007805461012690610794565b80601f016020809104026020016040519081016040528092919081815260200182805461015290610794565b801561019f5780601f106101745761010080835404028352916020019161019f565b820191906000526020600020905b81548152906001019060200180831161018257829003601f168201915b505050505081565b6000600460009054906101000a900473ffffffffffffffffffffffffffffffffffffffff1673ffffffffffffffffffffffffffffffffffffffff166371b50eb26040518163ffffffff1660e01b815260040160206040518083038186803b15801561021157600080fd5b505afa158015610225573d6000803e3d6000fd5b505050506040513d601f19601f820116820180604052508101906102499190610801565b905060085481111561025e5761025d6100cb565b5b60095481101561027157610270610366565b5b50565b600460009054906101000a900473ffffffffffffffffffffffffffffffffffffffff1673ffffffffffffffffffffffffffffffffffffffff16636deb7be36102bd600654610470565b6102d56003546006546102d0919061085d565b610470565b60006005600160026102e8600354610470565b6040518863ffffffff1660e01b815260040161030a9796959493929190610948565b602060405180830381600087803b15801561032457600080fd5b505af1158015610338573d6000803e3d6000fd5b505050506040513d601f19601f8201168201806040525081019061035c9190610a1e565b5042600681905550565b6040518060400160405280600481526020017f6c6f6e6700000000000000000000000000000000000000000000000000000000815250600790805190602001906103b19291906105d1565b50565b600080600460009054906101000a900473ffffffffffffffffffffffffffffffffffffffff1673ffffffffffffffffffffffffffffffffffffffff166371b50eb26040518163ffffffff1660e01b815260040160206040518083038186803b15801561041f57600080fd5b505afa158015610433573d6000803e3d6000fd5b505050506040513d601f19601f820116820180604052508101906104579190610801565b905060085481118061046a575060095481105b91505090565b606060008214156104b8576040518060400160405280600181526020017f300000000000000000000000000000000000000000000000000000000000000081525090506105cc565b600082905060005b600082146104ea5780806104d390610a4b565b915050600a826104e39190610ac3565b91506104c0565b60008167ffffffffffffffff81111561050657610505610af4565b5b6040519080825280601f01601f1916602001820160405280156105385781602001600182028036833780820191505090505b5090505b600085146105c5576001826105519190610b23565b9150600a856105609190610b57565b603061056c919061085d565b60f81b81838151811061058257610581610b88565b5b60200101907effffffffffffffffffffffffffffffffffffffffffffffffffffffffffffff1916908160001a905350600a856105be9190610ac3565b945061053c565b8093505050505b919050565b8280546105dd90610794565b90600052602060002090601f0160209004810192826105ff5760008555610646565b82601f1061061857805160ff1916838001178555610646565b82800160010185558215610646579182015b8281111561064557825182559160200191906001019061062a565b5b5090506106539190610657565b5090565b5b80821115610670576000816000905550600101610658565b5090565b600081519050919050565b600082825260208201905092915050565b60005b838110156106ae578082015181840152602081019050610693565b838111156106bd576000848401525b50505050565b6000601f19601f8301169050919050565b60006106df82610674565b6106e9818561067f565b93506106f9818560208601610690565b610702816106c3565b840191505092915050565b6000602082019050818103600083015261072781846106d4565b905092915050565b60008115159050919050565b6107448161072f565b82525050565b600060208201905061075f600083018461073b565b92915050565b7f4e487b7100000000000000000000000000000000000000000000000000000000600052602260045260246000fd5b600060028204905060018216806107ac57607f821691505b602082108114156107c0576107bf610765565b5b50919050565b600080fd5b6000819050919050565b6107de816107cb565b81146107e957600080fd5b50565b6000815190506107fb816107d5565b92915050565b600060208284031215610817576108166107c6565b5b6000610825848285016107ec565b91505092915050565b7f4e487b7100000000000000000000000000000000000000000000000000000000600052601160045260246000fd5b6000610868826107cb565b9150610873836107cb565b9250827fffffffffffffffffffffffffffffffffffffffffffffffffffffffffffffffff038211156108a8576108a761082e565b5b828201905092915050565b60008190508160005260206000209050919050565b600081546108d581610794565b6108df818661067f565b945060018216600081146108fa576001811461090c5761093f565b60ff198316865260208601935061093f565b610915856108b3565b60005b8381101561093757815481890152600182019150602081019050610918565b808801955050505b50505092915050565b600060e0820190508181036000830152610962818a6106d4565b9050818103602083015261097681896106d4565b9050818103604083015261098a81886108c8565b9050818103606083015261099e81876108c8565b905081810360808301526109b281866108c8565b905081810360a08301526109c681856108c8565b905081810360c08301526109da81846106d4565b905098975050505050505050565b6000819050919050565b6109fb816109e8565b8114610a0657600080fd5b50565b600081519050610a18816109f2565b92915050565b600060208284031215610a3457610a336107c6565b5b6000610a4284828501610a09565b91505092915050565b6000610a56826107cb565b91507fffffffffffffffffffffffffffffffffffffffffffffffffffffffffffffffff821415610a8957610a8861082e565b5b600182019050919050565b7f4e487b7100000000000000000000000000000000000000000000000000000000600052601260045260246000fd5b6000610ace826107cb565b9150610ad9836107cb565b925082610ae957610ae8610a94565b5b828204905092915050565b7f4e487b7100000000000000000000000000000000000000000000000000000000600052604160045260246000fd5b6000610b2e826107cb565b9150610b39836107cb565b925082821015610b4c57610b4b61082e565b5b828203905092915050565b6000610b62826107cb565b9150610b6d836107cb565b925082610b7d57610b7c610a94565b5b828206905092915050565b7f4e487b7100000000000000000000000000000000000000000000000000000000600052603260045260246000fdfea26469706673582212209e97815690f53be093ed986b32862af7dc8024620597a5f53800ee9152d9ce8964736f6c63430008090033",
  "linkReferences": {},
  "deployedLinkReferences": {}
}