{
  "_format": "hh-sol-artifact-1",
  "contractName": "StrategyManager",
  "sourceName": "contracts/StrategyManager.sol",
  "abi": [
    {
      "inputs": [
        {
          "internalType": "address",
          "name": "_smaIndicatorOracleAddres",
          "type": "address"
        }
      ],
      "stateMutability": "nonpayable",
      "type": "constructor"
    },
    {
      "anonymous": false,
      "inputs": [
        {
          "indexed": false,
          "internalType": "address",
          "name": "strategy",
          "type": "address"
        }
      ],
      "name": "StrategyRebalanced",
      "type": "event"
    },
    {
      "inputs": [
        {
          "internalType": "bytes",
          "name": "checkData",
          "type": "bytes"
        }
      ],
      "name": "checkUpkeep",
      "outputs": [
        {
          "internalType": "bool",
          "name": "upkeepNeeded",
          "type": "bool"
        },
        {
          "internalType": "bytes",
          "name": "performData",
          "type": "bytes"
        }
      ],
      "stateMutability": "view",
      "type": "function"
    },
    {
      "inputs": [
        {
          "internalType": "string",
          "name": "_asset_pair",
          "type": "string"
        },
        {
          "internalType": "string",
          "name": "_indicator",
          "type": "string"
        },
        {
          "internalType": "string",
          "name": "_time_frame",
          "type": "string"
        },
        {
          "internalType": "uint256",
          "name": "_period",
          "type": "uint256"
        },
        {
          "internalType": "uint256",
          "name": "_upper_limit",
          "type": "uint256"
        },
        {
          "internalType": "uint256",
          "name": "_lower_limit",
          "type": "uint256"
        }
      ],
      "name": "createStrategy",
      "outputs": [],
      "stateMutability": "nonpayable",
      "type": "function"
    },
    {
      "inputs": [],
      "name": "getStrategies",
      "outputs": [
        {
          "internalType": "address[]",
          "name": "",
          "type": "address[]"
        }
      ],
      "stateMutability": "view",
      "type": "function"
    },
    {
      "inputs": [
        {
          "internalType": "bytes",
          "name": "performData",
          "type": "bytes"
        }
      ],
      "name": "performUpkeep",
      "outputs": [],
      "stateMutability": "nonpayable",
      "type": "function"
    },
    {
      "inputs": [],
      "name": "updateIndicator",
      "outputs": [],
      "stateMutability": "nonpayable",
      "type": "function"
    }
  ],
  "bytecode": "0x60806040523480156200001157600080fd5b50604051620023f2380380620023f28339818101604052810190620000379190620000e8565b806000806101000a81548173ffffffffffffffffffffffffffffffffffffffff021916908373ffffffffffffffffffffffffffffffffffffffff160217905550506200011a565b600080fd5b600073ffffffffffffffffffffffffffffffffffffffff82169050919050565b6000620000b08262000083565b9050919050565b620000c281620000a3565b8114620000ce57600080fd5b50565b600081519050620000e281620000b7565b92915050565b6000602082840312156200010157620001006200007e565b5b60006200011184828501620000d1565b91505092915050565b6122c8806200012a6000396000f3fe60806040523480156200001157600080fd5b50600436106200005e5760003560e01c80634585e33b14620000635780636e04ff0d146200008357806381920d4d14620000ba578063b49a60bb14620000c6578063d29aefbf14620000e8575b600080fd5b6200008160048036038101906200007b91906200074e565b62000108565b005b620000a160048036038101906200009b91906200074e565b620002d6565b604051620000b192919062000864565b60405180910390f35b620000c462000486565b005b620000d062000559565b604051620000df91906200099a565b60405180910390f35b62000106600480360381019062000100919062000b45565b620005e9565b005b600082828101906200011b919062000d45565b905060005b8151811015620002d05760006001828154811062000143576200014262000d96565b5b9060005260206000200160009054906101000a900473ffffffffffffffffffffffffffffffffffffffff16905082828151811062000186576200018562000d96565b5b602002602001015115620002b9578073ffffffffffffffffffffffffffffffffffffffff1663a56c077f6040518163ffffffff1660e01b815260040160206040518083038186803b158015620001db57600080fd5b505afa158015620001f0573d6000803e3d6000fd5b505050506040513d601f19601f8201168201806040525081019062000216919062000ddc565b15620002b8578073ffffffffffffffffffffffffffffffffffffffff16637d7c2a1c6040518163ffffffff1660e01b8152600401600060405180830381600087803b1580156200026557600080fd5b505af11580156200027a573d6000803e3d6000fd5b505050507f9b2b3ed13f86acdd2531523fdb6e53af8df7faec867b146a9cc71f2457dade5b81604051620002af919062000e1f565b60405180910390a15b5b508080620002c79062000e6b565b91505062000120565b50505050565b60006060600060018054905067ffffffffffffffff811115620002fe57620002fd620009c3565b5b6040519080825280602002602001820160405280156200032d5781602001602082028036833780820191505090505b5090506000925060005b60018054905081101562000459576000600182815481106200035e576200035d62000d96565b5b9060005260206000200160009054906101000a900473ffffffffffffffffffffffffffffffffffffffff1690508073ffffffffffffffffffffffffffffffffffffffff1663a56c077f6040518163ffffffff1660e01b815260040160206040518083038186803b158015620003d257600080fd5b505afa158015620003e7573d6000803e3d6000fd5b505050506040513d601f19601f820116820180604052508101906200040d919062000ddc565b15620004425760018383815181106200042b576200042a62000d96565b5b602002602001019015159081151581525050600194505b508080620004509062000e6b565b91505062000337565b50806040516020016200046d919062000f87565b6040516020818303038152906040529150509250929050565b60005b6001805490508110156200055657600060018281548110620004b057620004af62000d96565b5b9060005260206000200160009054906101000a900473ffffffffffffffffffffffffffffffffffffffff1690508073ffffffffffffffffffffffffffffffffffffffff166381920d4d6040518163ffffffff1660e01b8152600401600060405180830381600087803b1580156200052657600080fd5b505af11580156200053b573d6000803e3d6000fd5b505050505080806200054d9062000e6b565b91505062000489565b50565b60606001805480602002602001604051908101604052809291908181526020018280548015620005df57602002820191906000526020600020905b8160009054906101000a900473ffffffffffffffffffffffffffffffffffffffff1673ffffffffffffffffffffffffffffffffffffffff168152602001906001019080831162000594575b5050505050905090565b60008686868660008054906101000a900473ffffffffffffffffffffffffffffffffffffffff1687876040516200062090620006be565b62000632979695949392919062001019565b604051809103906000f0801580156200064f573d6000803e3d6000fd5b5090506001819080600181540180825580915050600190039060005260206000200160009091909190916101000a81548173ffffffffffffffffffffffffffffffffffffffff021916908373ffffffffffffffffffffffffffffffffffffffff16021790555050505050505050565b6111e780620010ac83390190565b6000604051905090565b600080fd5b600080fd5b600080fd5b600080fd5b600080fd5b60008083601f840112620007085762000707620006e0565b5b8235905067ffffffffffffffff811115620007285762000727620006e5565b5b602083019150836001820283011115620007475762000746620006ea565b5b9250929050565b60008060208385031215620007685762000767620006d6565b5b600083013567ffffffffffffffff811115620007895762000788620006db565b5b6200079785828601620006ef565b92509250509250929050565b60008115159050919050565b620007ba81620007a3565b82525050565b600081519050919050565b600082825260208201905092915050565b60005b83811015620007fc578082015181840152602081019050620007df565b838111156200080c576000848401525b50505050565b6000601f19601f8301169050919050565b60006200083082620007c0565b6200083c8185620007cb565b93506200084e818560208601620007dc565b620008598162000812565b840191505092915050565b60006040820190506200087b6000830185620007af565b81810360208301526200088f818462000823565b90509392505050565b600081519050919050565b600082825260208201905092915050565b6000819050602082019050919050565b600073ffffffffffffffffffffffffffffffffffffffff82169050919050565b6000620008f182620008c4565b9050919050565b6200090381620008e4565b82525050565b6000620009178383620008f8565b60208301905092915050565b6000602082019050919050565b60006200093d8262000898565b620009498185620008a3565b93506200095683620008b4565b8060005b838110156200098d57815162000971888262000909565b97506200097e8362000923565b9250506001810190506200095a565b5085935050505092915050565b60006020820190508181036000830152620009b6818462000930565b905092915050565b600080fd5b7f4e487b7100000000000000000000000000000000000000000000000000000000600052604160045260246000fd5b620009fd8262000812565b810181811067ffffffffffffffff8211171562000a1f5762000a1e620009c3565b5b80604052505050565b600062000a34620006cc565b905062000a428282620009f2565b919050565b600067ffffffffffffffff82111562000a655762000a64620009c3565b5b62000a708262000812565b9050602081019050919050565b82818337600083830152505050565b600062000aa362000a9d8462000a47565b62000a28565b90508281526020810184848401111562000ac25762000ac1620009be565b5b62000acf84828562000a7d565b509392505050565b600082601f83011262000aef5762000aee620006e0565b5b813562000b0184826020860162000a8c565b91505092915050565b6000819050919050565b62000b1f8162000b0a565b811462000b2b57600080fd5b50565b60008135905062000b3f8162000b14565b92915050565b60008060008060008060c0878903121562000b655762000b64620006d6565b5b600087013567ffffffffffffffff81111562000b865762000b85620006db565b5b62000b9489828a0162000ad7565b965050602087013567ffffffffffffffff81111562000bb85762000bb7620006db565b5b62000bc689828a0162000ad7565b955050604087013567ffffffffffffffff81111562000bea5762000be9620006db565b5b62000bf889828a0162000ad7565b945050606062000c0b89828a0162000b2e565b935050608062000c1e89828a0162000b2e565b92505060a062000c3189828a0162000b2e565b9150509295509295509295565b600067ffffffffffffffff82111562000c5c5762000c5b620009c3565b5b602082029050602081019050919050565b62000c7881620007a3565b811462000c8457600080fd5b50565b60008135905062000c988162000c6d565b92915050565b600062000cb562000caf8462000c3e565b62000a28565b9050808382526020820190506020840283018581111562000cdb5762000cda620006ea565b5b835b8181101562000d08578062000cf3888262000c87565b84526020840193505060208101905062000cdd565b5050509392505050565b600082601f83011262000d2a5762000d29620006e0565b5b813562000d3c84826020860162000c9e565b91505092915050565b60006020828403121562000d5e5762000d5d620006d6565b5b600082013567ffffffffffffffff81111562000d7f5762000d7e620006db565b5b62000d8d8482850162000d12565b91505092915050565b7f4e487b7100000000000000000000000000000000000000000000000000000000600052603260045260246000fd5b60008151905062000dd68162000c6d565b92915050565b60006020828403121562000df55762000df4620006d6565b5b600062000e058482850162000dc5565b91505092915050565b62000e1981620008e4565b82525050565b600060208201905062000e36600083018462000e0e565b92915050565b7f4e487b7100000000000000000000000000000000000000000000000000000000600052601160045260246000fd5b600062000e788262000b0a565b91507fffffffffffffffffffffffffffffffffffffffffffffffffffffffffffffffff82141562000eae5762000ead62000e3c565b5b600182019050919050565b600081519050919050565b600082825260208201905092915050565b6000819050602082019050919050565b62000ef081620007a3565b82525050565b600062000f04838362000ee5565b60208301905092915050565b6000602082019050919050565b600062000f2a8262000eb9565b62000f36818562000ec4565b935062000f438362000ed5565b8060005b8381101562000f7a57815162000f5e888262000ef6565b975062000f6b8362000f10565b92505060018101905062000f47565b5085935050505092915050565b6000602082019050818103600083015262000fa3818462000f1d565b905092915050565b600081519050919050565b600082825260208201905092915050565b600062000fd48262000fab565b62000fe0818562000fb6565b935062000ff2818560208601620007dc565b62000ffd8162000812565b840191505092915050565b620010138162000b0a565b82525050565b600060e082019050818103600083015262001035818a62000fc7565b905081810360208301526200104b818962000fc7565b9050818103604083015262001061818862000fc7565b905062001072606083018762001008565b62001081608083018662000e0e565b6200109060a083018562001008565b6200109f60c083018462001008565b9897505050505050505056fe60806040526040518060400160405280600881526020017f457468657265756d000000000000000000000000000000000000000000000000815250600590805190602001906200005192919062000188565b506040518060400160405280600481526020017f6c6f6e6700000000000000000000000000000000000000000000000000000000815250600790805190602001906200009f92919062000188565b50348015620000ad57600080fd5b50604051620011e7380380620011e78339818101604052810190620000d3919062000475565b8660009080519060200190620000eb92919062000188565b5085600190805190602001906200010492919062000188565b5084600290805190602001906200011d92919062000188565b508360038190555082600460006101000a81548173ffffffffffffffffffffffffffffffffffffffff021916908373ffffffffffffffffffffffffffffffffffffffff16021790555042600681905550816008819055508060098190555050505050505050620005ea565b8280546200019690620005b4565b90600052602060002090601f016020900481019282620001ba576000855562000206565b82601f10620001d557805160ff191683800117855562000206565b8280016001018555821562000206579182015b8281111562000205578251825591602001919060010190620001e8565b5b50905062000215919062000219565b5090565b5b80821115620002345760008160009055506001016200021a565b5090565b6000604051905090565b600080fd5b600080fd5b600080fd5b600080fd5b6000601f19601f8301169050919050565b7f4e487b7100000000000000000000000000000000000000000000000000000000600052604160045260246000fd5b620002a18262000256565b810181811067ffffffffffffffff82111715620002c357620002c262000267565b5b80604052505050565b6000620002d862000238565b9050620002e6828262000296565b919050565b600067ffffffffffffffff82111562000309576200030862000267565b5b620003148262000256565b9050602081019050919050565b60005b838110156200034157808201518184015260208101905062000324565b8381111562000351576000848401525b50505050565b60006200036e6200036884620002eb565b620002cc565b9050828152602081018484840111156200038d576200038c62000251565b5b6200039a84828562000321565b509392505050565b600082601f830112620003ba57620003b96200024c565b5b8151620003cc84826020860162000357565b91505092915050565b6000819050919050565b620003ea81620003d5565b8114620003f657600080fd5b50565b6000815190506200040a81620003df565b92915050565b600073ffffffffffffffffffffffffffffffffffffffff82169050919050565b60006200043d8262000410565b9050919050565b6200044f8162000430565b81146200045b57600080fd5b50565b6000815190506200046f8162000444565b92915050565b600080600080600080600060e0888a03121562000497576200049662000242565b5b600088015167ffffffffffffffff811115620004b857620004b762000247565b5b620004c68a828b01620003a2565b975050602088015167ffffffffffffffff811115620004ea57620004e962000247565b5b620004f88a828b01620003a2565b965050604088015167ffffffffffffffff8111156200051c576200051b62000247565b5b6200052a8a828b01620003a2565b95505060606200053d8a828b01620003f9565b9450506080620005508a828b016200045e565b93505060a0620005638a828b01620003f9565b92505060c0620005768a828b01620003f9565b91505092959891949750929550565b7f4e487b7100000000000000000000000000000000000000000000000000000000600052602260045260246000fd5b60006002820490506001821680620005cd57607f821691505b60208210811415620005e457620005e362000585565b5b50919050565b610bed80620005fa6000396000f3fe608060405234801561001057600080fd5b50600436106100625760003560e01c806311bbb15514610067578063200d2ed2146100715780637d7c2a1c1461008f57806381920d4d146100995780639ff394a8146100a3578063a56c077f146100ad575b600080fd5b61006f6100cb565b005b610079610119565b604051610086919061070d565b60405180910390f35b6100976101a7565b005b6100a1610274565b005b6100ab610366565b005b6100b56103b4565b6040516100c2919061074a565b60405180910390f35b6040518060400160405280600581526020017f73686f7274000000000000000000000000000000000000000000000000000000815250600790805190602001906101169291906105d1565b50565b6007805461012690610794565b80601f016020809104026020016040519081016040528092919081815260200182805461015290610794565b801561019f5780601f106101745761010080835404028352916020019161019f565b820191906000526020600020905b81548152906001019060200180831161018257829003601f168201915b505050505081565b6000600460009054906101000a900473ffffffffffffffffffffffffffffffffffffffff1673ffffffffffffffffffffffffffffffffffffffff166371b50eb26040518163ffffffff1660e01b815260040160206040518083038186803b15801561021157600080fd5b505afa158015610225573d6000803e3d6000fd5b505050506040513d601f19601f820116820180604052508101906102499190610801565b905060085481111561025e5761025d6100cb565b5b60095481101561027157610270610366565b5b50565b600460009054906101000a900473ffffffffffffffffffffffffffffffffffffffff1673ffffffffffffffffffffffffffffffffffffffff16636deb7be36102bd600654610470565b6102d56003546006546102d0919061085d565b610470565b60006005600160026102e8600354610470565b6040518863ffffffff1660e01b815260040161030a9796959493929190610948565b602060405180830381600087803b15801561032457600080fd5b505af1158015610338573d6000803e3d6000fd5b505050506040513d601f19601f8201168201806040525081019061035c9190610a1e565b5042600681905550565b6040518060400160405280600481526020017f6c6f6e6700000000000000000000000000000000000000000000000000000000815250600790805190602001906103b19291906105d1565b50565b600080600460009054906101000a900473ffffffffffffffffffffffffffffffffffffffff1673ffffffffffffffffffffffffffffffffffffffff166371b50eb26040518163ffffffff1660e01b815260040160206040518083038186803b15801561041f57600080fd5b505afa158015610433573d6000803e3d6000fd5b505050506040513d601f19601f820116820180604052508101906104579190610801565b905060085481118061046a575060095481105b91505090565b606060008214156104b8576040518060400160405280600181526020017f300000000000000000000000000000000000000000000000000000000000000081525090506105cc565b600082905060005b600082146104ea5780806104d390610a4b565b915050600a826104e39190610ac3565b91506104c0565b60008167ffffffffffffffff81111561050657610505610af4565b5b6040519080825280601f01601f1916602001820160405280156105385781602001600182028036833780820191505090505b5090505b600085146105c5576001826105519190610b23565b9150600a856105609190610b57565b603061056c919061085d565b60f81b81838151811061058257610581610b88565b5b60200101907effffffffffffffffffffffffffffffffffffffffffffffffffffffffffffff1916908160001a905350600a856105be9190610ac3565b945061053c565b8093505050505b919050565b8280546105dd90610794565b90600052602060002090601f0160209004810192826105ff5760008555610646565b82601f1061061857805160ff1916838001178555610646565b82800160010185558215610646579182015b8281111561064557825182559160200191906001019061062a565b5b5090506106539190610657565b5090565b5b80821115610670576000816000905550600101610658565b5090565b600081519050919050565b600082825260208201905092915050565b60005b838110156106ae578082015181840152602081019050610693565b838111156106bd576000848401525b50505050565b6000601f19601f8301169050919050565b60006106df82610674565b6106e9818561067f565b93506106f9818560208601610690565b610702816106c3565b840191505092915050565b6000602082019050818103600083015261072781846106d4565b905092915050565b60008115159050919050565b6107448161072f565b82525050565b600060208201905061075f600083018461073b565b92915050565b7f4e487b7100000000000000000000000000000000000000000000000000000000600052602260045260246000fd5b600060028204905060018216806107ac57607f821691505b602082108114156107c0576107bf610765565b5b50919050565b600080fd5b6000819050919050565b6107de816107cb565b81146107e957600080fd5b50565b6000815190506107fb816107d5565b92915050565b600060208284031215610817576108166107c6565b5b6000610825848285016107ec565b91505092915050565b7f4e487b7100000000000000000000000000000000000000000000000000000000600052601160045260246000fd5b6000610868826107cb565b9150610873836107cb565b9250827fffffffffffffffffffffffffffffffffffffffffffffffffffffffffffffffff038211156108a8576108a761082e565b5b828201905092915050565b60008190508160005260206000209050919050565b600081546108d581610794565b6108df818661067f565b945060018216600081146108fa576001811461090c5761093f565b60ff198316865260208601935061093f565b610915856108b3565b60005b8381101561093757815481890152600182019150602081019050610918565b808801955050505b50505092915050565b600060e0820190508181036000830152610962818a6106d4565b9050818103602083015261097681896106d4565b9050818103604083015261098a81886108c8565b9050818103606083015261099e81876108c8565b905081810360808301526109b281866108c8565b905081810360a08301526109c681856108c8565b905081810360c08301526109da81846106d4565b905098975050505050505050565b6000819050919050565b6109fb816109e8565b8114610a0657600080fd5b50565b600081519050610a18816109f2565b92915050565b600060208284031215610a3457610a336107c6565b5b6000610a4284828501610a09565b91505092915050565b6000610a56826107cb565b91507fffffffffffffffffffffffffffffffffffffffffffffffffffffffffffffffff821415610a8957610a8861082e565b5b600182019050919050565b7f4e487b7100000000000000000000000000000000000000000000000000000000600052601260045260246000fd5b6000610ace826107cb565b9150610ad9836107cb565b925082610ae957610ae8610a94565b5b828204905092915050565b7f4e487b7100000000000000000000000000000000000000000000000000000000600052604160045260246000fd5b6000610b2e826107cb565b9150610b39836107cb565b925082821015610b4c57610b4b61082e565b5b828203905092915050565b6000610b62826107cb565b9150610b6d836107cb565b925082610b7d57610b7c610a94565b5b828206905092915050565b7f4e487b7100000000000000000000000000000000000000000000000000000000600052603260045260246000fdfea26469706673582212209e97815690f53be093ed986b32862af7dc8024620597a5f53800ee9152d9ce8964736f6c63430008090033a264697066735822122020a7b6cbcb63b18966ea3374ae232a789ffdb487ad05f32dae55b645e25b5e4464736f6c63430008090033",
  "linkReferences": {},
  "deployedLinkReferences": {}
}