{
  "_format": "hh-sol-artifact-1",
  "contractName": "StrategyManager",
  "sourceName": "contracts/StrategyManager.sol",
  "abi": [
    {
      "inputs": [
        {
          "internalType": "bytes",
          "name": "checkData",
          "type": "bytes"
        }
      ],
      "name": "checkUpkeep",
      "outputs": [
        {
          "internalType": "bool",
          "name": "upkeepNeeded",
          "type": "bool"
        },
        {
          "internalType": "bytes",
          "name": "performData",
          "type": "bytes"
        }
      ],
      "stateMutability": "view",
      "type": "function"
    },
    {
      "inputs": [],
      "name": "createStrategy",
      "outputs": [],
      "stateMutability": "nonpayable",
      "type": "function"
    },
    {
      "inputs": [
        {
          "internalType": "bytes",
          "name": "performData",
          "type": "bytes"
        }
      ],
      "name": "performUpkeep",
      "outputs": [],
      "stateMutability": "nonpayable",
      "type": "function"
    }
  ],
  "bytecode": "0x608060405234801561001057600080fd5b50610a7a806100206000396000f3fe608060405234801561001057600080fd5b50600436106100415760003560e01c80634585e33b1461004657806353e6b797146100625780636e04ff0d1461006c575b600080fd5b610060600480360381019061005b91906104b0565b61009d565b005b61006a61020e565b005b610086600480360381019061008191906104b0565b6102a1565b6040516100949291906105a8565b60405180910390f35b600082828101906100ae9190610742565b905060005b81518110156102085760008082815481106100d1576100d061078b565b5b9060005260206000200160009054906101000a900473ffffffffffffffffffffffffffffffffffffffff1690508282815181106101115761011061078b565b5b6020026020010151156101f4578073ffffffffffffffffffffffffffffffffffffffff1663a56c077f6040518163ffffffff1660e01b8152600401602060405180830381865afa158015610169573d6000803e3d6000fd5b505050506040513d601f19601f8201168201806040525081019061018d91906107cf565b156101f3578073ffffffffffffffffffffffffffffffffffffffff16637d7c2a1c6040518163ffffffff1660e01b8152600401600060405180830381600087803b1580156101da57600080fd5b505af11580156101ee573d6000803e3d6000fd5b505050505b5b50808061020090610835565b9150506100b3565b50505050565b600060405161021c9061042b565b604051809103906000f080158015610238573d6000803e3d6000fd5b5090506000819080600181540180825580915050600190039060005260206000200160009091909190916101000a81548173ffffffffffffffffffffffffffffffffffffffff021916908373ffffffffffffffffffffffffffffffffffffffff16021790555050565b600060606000808054905067ffffffffffffffff8111156102c5576102c46105d8565b5b6040519080825280602002602001820160405280156102f35781602001602082028036833780820191505090505b5090506000925060005b600080549050811015610400576001935060008082815481106103235761032261078b565b5b9060005260206000200160009054906101000a900473ffffffffffffffffffffffffffffffffffffffff1690508073ffffffffffffffffffffffffffffffffffffffff1663a56c077f6040518163ffffffff1660e01b8152600401602060405180830381865afa15801561039b573d6000803e3d6000fd5b505050506040513d601f19601f820116820180604052508101906103bf91906107cf565b156103ec5760018383815181106103d9576103d861078b565b5b6020026020010190151590811515815250505b5080806103f890610835565b9150506102fd565b5080604051602001610412919061093b565b6040516020818303038152906040529150509250929050565b60e78061095e83390190565b6000604051905090565b600080fd5b600080fd5b600080fd5b600080fd5b600080fd5b60008083601f8401126104705761046f61044b565b5b8235905067ffffffffffffffff81111561048d5761048c610450565b5b6020830191508360018202830111156104a9576104a8610455565b5b9250929050565b600080602083850312156104c7576104c6610441565b5b600083013567ffffffffffffffff8111156104e5576104e4610446565b5b6104f18582860161045a565b92509250509250929050565b60008115159050919050565b610512816104fd565b82525050565b600081519050919050565b600082825260208201905092915050565b60005b83811015610552578082015181840152602081019050610537565b60008484015250505050565b6000601f19601f8301169050919050565b600061057a82610518565b6105848185610523565b9350610594818560208601610534565b61059d8161055e565b840191505092915050565b60006040820190506105bd6000830185610509565b81810360208301526105cf818461056f565b90509392505050565b7f4e487b7100000000000000000000000000000000000000000000000000000000600052604160045260246000fd5b6106108261055e565b810181811067ffffffffffffffff8211171561062f5761062e6105d8565b5b80604052505050565b6000610642610437565b905061064e8282610607565b919050565b600067ffffffffffffffff82111561066e5761066d6105d8565b5b602082029050602081019050919050565b610688816104fd565b811461069357600080fd5b50565b6000813590506106a58161067f565b92915050565b60006106be6106b984610653565b610638565b905080838252602082019050602084028301858111156106e1576106e0610455565b5b835b8181101561070a57806106f68882610696565b8452602084019350506020810190506106e3565b5050509392505050565b600082601f8301126107295761072861044b565b5b81356107398482602086016106ab565b91505092915050565b60006020828403121561075857610757610441565b5b600082013567ffffffffffffffff81111561077657610775610446565b5b61078284828501610714565b91505092915050565b7f4e487b7100000000000000000000000000000000000000000000000000000000600052603260045260246000fd5b6000815190506107c98161067f565b92915050565b6000602082840312156107e5576107e4610441565b5b60006107f3848285016107ba565b91505092915050565b7f4e487b7100000000000000000000000000000000000000000000000000000000600052601160045260246000fd5b6000819050919050565b60006108408261082b565b91507fffffffffffffffffffffffffffffffffffffffffffffffffffffffffffffffff8203610872576108716107fc565b5b600182019050919050565b600081519050919050565b600082825260208201905092915050565b6000819050602082019050919050565b6108b2816104fd565b82525050565b60006108c483836108a9565b60208301905092915050565b6000602082019050919050565b60006108e88261087d565b6108f28185610888565b93506108fd83610899565b8060005b8381101561092e57815161091588826108b8565b9750610920836108d0565b925050600181019050610901565b5085935050505092915050565b6000602082019050818103600083015261095581846108dd565b90509291505056fe608060405234801561001057600080fd5b5060c88061001f6000396000f3fe6080604052348015600f57600080fd5b506004361060325760003560e01c80637d7c2a1c146037578063a56c077f14603f575b600080fd5b603d6059565b005b6045605b565b604051605091906079565b60405180910390f35b565b600090565b60008115159050919050565b6073816060565b82525050565b6000602082019050608c6000830184606c565b9291505056fea2646970667358221220631960558c09526d3cd2454f757b1b30aa7c19fd736949ae37b9ee321926783664736f6c63430008110033a264697066735822122043c4f0b909ccf0b5fbcf0f6e76e5b26f5c9d47ca70059c48f74d0b5e91fa460264736f6c63430008110033",
  "linkReferences": {},
  "deployedLinkReferences": {}
}